:100000000C9434000C9451000C9451000C94510049
:100010000C9451000C9451000C9451000C94F90074
:100020000C9451000C9451000C9451000C9451000C
:100030000C9451000C9451000C9451000C945100FC
:100040000C9451000C9451000C9451000C945100EC
:100050000C9451000C9451000C9451000C945100DC
:100060000C9451000C94510011241FBECFEFD8E026
:10007000DEBFCDBF11E0A0E0B1E0E0EAF4E002C0F5
:1000800005900D92AE30B107D9F721E0AEE0B1E0B6
:1000900001C01D92A231B207E1F70E9427020C9421
:1000A0004E020C94000082E08093B00094E09093A4
:1000B000B1008093700089EF8093B30008952FB74B
:1000C000F89460910E0170910F0180911001909150
:1000D00011012FBF0895E4E6F0E080818F7B8083DB
:1000E000E0E78081826080830895E0E7F0E080812E
:1000F0008D7F8083E4E680818064808308958FB75C
:10010000F89410920E0110920F01109210011092AB
:1001100011018FBF0895EFB7F89420910E0130912F
:100120000F014091100150911101DC01CB01820FB0
:10013000931FA41FB51F80930E0190930F01A093EE
:100140001001B0931101EFBF0895EF92FF920F934A
:100150001F93EFB7F89420910E0130910F01409159
:1001600010015091110179018A01E61AF70A080B72
:10017000190BC701D80180930E0190930F01A09332
:100180001001B0931101EFBF1F910F91FF90EF90FD
:100190000895CF93DF93CDB7DEB728970FB6F894C5
:1001A000DEBF0FBECDBF69837A838B839C830E94A1
:1001B0005F006D837E838F8398870E945F002D810F
:1001C0003E814F815885621B730B840B950B2981EF
:1001D0003A814B815C81621773078407950768F346
:1001E00028960FB6F894DEBF0FBECDBFDF91CF913A
:1001F00008951F921FB61F9211248F939F93AF9360
:10020000BF9380910E0190910F01A0911001B091C8
:1002100011010196A11DB11D80930E0190930F0154
:10022000A0931001B0931101BF91AF919F918F9155
:100230001F901FBE1F901895089560FF13C05C9A11
:1002400061FF12C05D9A62FF11C05E9A63FF10C029
:100250005F9A5B9A61E070E080E090E00E94C900E4
:100260005B9808955C98ECCF5D98EDCF5E98EECFEB
:100270005F98EFCFCF93DF9300D00F92CDB7DEB76B
:1002800089839A836B8362956F700E941D016B81D5
:1002900089819A810F900F900F90DF91CF910C94EC
:1002A0001D010E943A016AE070E080E090E00C9449
:1002B000C90061E00E94510162E070E080E090E0DE
:1002C0000C94C900CF93DF93EC01529A539A549A3D
:1002D000559A569A579A5B985A9864E670E080E06F
:1002E00090E00E94C90063E0CE010E941D0165E01C
:1002F00070E080E090E00E94C90063E0CE010E94BF
:100300001D0164E670E080E090E00E94C90063E0B7
:10031000CE010E941D0164E670E080E090E00E9442
:10032000C90062E0CE010E941D0164E670E080E039
:1003300090E00E94C90068E2CE010E94510164E68B
:1003400070E080E090E00E94C9006CE0CE010E9465
:10035000510164E670E080E090E00E94C900CE01A7
:100360000E94590162E070E080E090E00E94C900C4
:1003700066E0CE010E94510164E670E080E090E00A
:10038000DF91CF910C94C90062E00E94510162E0BC
:1003900070E080E090E00C94C900CF93DF9300D030
:1003A0000F92CDB7DEB789839A836B835A9A62E046
:1003B00070E080E090E00E94C9006B8189819A81A1
:1003C0000E943A0162E070E080E090E00E94C90083
:1003D0005A9862E070E080E090E00F900F900F90EC
:1003E000DF91CF910C94C900EF92FF920F931F936E
:1003F000CF93DF937C01EB010E94590100E010E0F4
:100400006881611107C0DF91CF911F910F91FF901B
:10041000EF9008956D3051F06A3051F4013099F346
:1004200060ECC7010E94510101E010E02196E8CF85
:10043000C7010E94CD011F5F1031C0F3EFCF42957D
:10044000440F440F407C6058640F0C9451010F928C
:10045000CDB7DEB70E94530078948E010F5F1F4F17
:10046000C8010E94620160E071E0C8010E94F401CD
:100470002FEF87EA91E6215080409040E1F700C0DD
:100480000000C8010E9459012FEF89E698E1215030
:1004900080409040E1F700C00000E5CFF894FFCF26
:0E04A00048656C6C6F2C20576F726C642100E5
:00000001FF
